:020000040800F2
:1000000000040020B90300081904000819040008BE
:100010001904000819040008190400080000000071
:1000200000000000000000000000000019040008AB
:100030001904000800000000190400081904000851
:10004000190400081904000819040008190400081C
:10005000190400081904000819040008190400080C
:1000600019040008190400081904000819040008FC
:1000700019040008190400081904000819040008EC
:1000800019040008190400081904000819040008DC
:1000900019040008190400081904000819040008CC
:1000A00019040008190400081904000819040008BC
:1000B00019040008190400081904000819040008AC
:1000C000190400081904000819040008190400089C
:1000D000190400081904000819040008190400088C
:1000E00019040008190400081904000800000000A1
:1000F0000000000000000000000000000000000000
:1001000000000000000000005FF808F180B500AFBB
:10011000154B154A126842F001021A60124A124B3E
:100120005968124B0B4053600F4A0F4B1B6823F06A
:10013000847323F4803313600B4B0B4A126822F450
:1001400080221A60084B084A526822F4FE025A6064
:10015000054B4FF41F029A6000F00CF8044B4FF06F
:1001600000629A6080BD00BF001002400000FFF8EE
:1001700000ED00E080B500AF00F002F880BD00BFE8
:1001800080B483B000AF00237B6000233B603A4B18
:10019000394A126842F480321A60374B1B6803F404
:1001A00000333B607B6801337B603B68002B03D1ED
:1001B0007B68B3F5A06FF0D12F4B1B6803F40033BD
:1001C000002B02D001233B6001E000233B603B6831
:1001D000012B4BD1294B294A126842F010021A60B8
:1001E000264B264A126822F003021A60234B234A48
:1001F000126842F002021A601F4B1F4A52685A608E
:100200001D4B1D4A52685A601B4B1B4A526842F4F0
:1002100080625A60184B184A526822F47C125A6065
:10022000154B154A526842F4E8125A60124B124AB2
:10023000126842F080721A6000BF0F4B1B6803F017
:100240000073002BF9D00C4B0B4A526822F00302CA
:100250005A60094B084A526842F002025A6000BFD5
:10026000054B5B6803F00C03082BF9D10C37BD4636
:100270005DF8047B704700BF001002400020024080
:1002800080B400AF334B334A926942F480429A61A2
:10029000304B304A926942F004029A612D4B2D4A4C
:1002A000926942F001029A612B4B2B4A526822F06C
:1002B00004025A60294B294A526842F080025A606F
:1002C000264B264A526842F010025A60234B234ABA
:1002D000526842F440625A60204B204A526842F40D
:1002E00040725A601E4B1E4A928992B222F400520A
:1002F00092B29A811A4B40F2B4421A81184B184AB2
:10030000928992B242F4005292B29A81144B144AEA
:10031000928992B222F4805292B29A81104B104A82
:10032000128A92B222F4405292B21A820C4B0C4AB8
:10033000928992B242F0080292B29A81084B084A1E
:10034000928992B242F0040292B29A81BD465DF85F
:10035000047B70470010024000000140000801408B
:100360000038014080B483B000AF0346FB800A4BE5
:10037000FA889A8000BF084A074B1B889BB223F07B
:1003800080039BB219461180002BF4D10C37BD4677
:100390005DF8047B704700BF0038014080B400AFB7
:1003A00000BF044B034A128892B242F0200292B27C
:1003B0001A80F6E70038014080B582B000AF114BDB
:1003C0007B60114B3B6007E03B681A1D3A607A681E
:1003D000111D796012681A603A680C4B9A42F3D387
:1003E0000B480C494FF000028842B8BF40F8042B7C
:1003F000FFF6FAAFFFF78AFE00F022F80837BD4695
:1004000080BD00BF64040008000000200000002040
:10041000000000200000002080B400AFFEE700BF15
:1004200080B483B000AF786002E07B68013B7B6002
:100430007B68002BF9DC0C37BD465DF8047B704708
:1004400080B500AFFFF71CFF6420FFF78BFF4FF470
:100450007A70FFF7E5FFFFF7A1FF4FF47A70FFF71F
:04046000DFFFF1E7E2
:0400000508000000EF
:00000001FF
