:020000040800F2
:1000000050490020F9030008590400085904000869
:1000100059040008590400085904000800000000B1
:10002000000000000000000000000000B1380008DF
:100030005904000800000000213A0008693A00084D
:10004000590400085904000859040008590400081C
:10005000590400085904000859040008590400080C
:1000600059040008590400085904000859040008FC
:1000700059040008590400085904000859040008EC
:1000800059040008590400085904000859040008DC
:1000900059040008590400085904000859040008CC
:1000A00059040008590400085904000859040008BC
:1000B0005904000859040008590400080D010008FB
:1000C0007502000859040008590400085904000882
:1000D000590400085904000859040008590400088C
:1000E00059040008590400085904000800000000E1
:1000F0000000000000000000000000000000000000
:1001000000000000000000005FF808F180B582B038
:1001100000AF504B1B68002B5CD0012001F0BCFBF2
:100120004D4B1B68002B2ED04C4B9B8A9BB203F08F
:100130000103002B0DD0494B9B8A9BB21A46484BBA
:100140001A60464A474B1B689BB25B009BB2138206
:100150007CE0424B9B8A9BB203F002035B10002BB6
:1001600074D03E4B9B8A9BB21A463D4B1A603B4B68
:100170001B8B9BB21A463A4B1A60384B3A4A1268AC
:1001800092B21A8262E0354B9B8A9BB203F0010364
:10019000002B0CD0314B9B8A304A324B1B685B00E2
:1001A0001BB243F001031BB29BB213824EE02B4BF8
:1001B0009B8A9BB203F002035B10002B46D0274BB7
:1001C0009B8A264B1B8B254B1B8A9BB21A46274BBF
:1001D0001A603BE0264B1B68002B11D01F4B9B8AFB
:1001E0009BB203F002035B10002B2FD01B4B9B8AAA
:1001F0001A4B1B8B194B1C4A126892B21A8225E0CB
:10020000164B9B8A9BB203F002035B10002B1DD0A0
:10021000124B9B8A9BB21A46114B1A600F4B1B8BD9
:100220009BB21A460E4B1A6000237B6002E07B688B
:1002300001337B607B68632BF9DD084B1B8A9BB223
:100240001A46094B1A60012001F026FB00BF08374F
:10025000BD4680BD3400002038000020005400401E
:100260004400002008000020000000204000002082
:100270003C00002080B500AF012001F00DFB00BF65
:1002800080BD00BF80B500AF154A154B1B6843F019
:10029000010313601249124B5A68124B13404B6012
:1002A0000F4A0F4B1B6823F0847323F480331360D1
:1002B0000B4A0B4B1B6823F480231360084A084B3E
:1002C0005B6823F4FE035360054B4FF41F029A60F2
:1002D00000F00CF8044B4FF000629A6000BF80BD44
:1002E000001002400000FFF800ED00E080B500AF14
:1002F00000F002F800BF80BD80B483B000AF0023DF
:100300007B6000233B603A4A394B1B6843F48033DF
:100310001360374B1B6803F400333B607B68013389
:100320007B603B68002B03D17B68B3F5A06FF0D1F5
:100330002F4B1B6803F40033002B02D001233B60DA
:1003400001E000233B603B68012B4BD1294A294B3C
:100350001B6843F010031360264A264B1B6823F0EA
:1003600003031360234A234B1B6843F0020313600B
:100370001F4A1F4B5B6853601D4A1D4B5B685360EF
:100380001B4A1B4B5B6843F480635360184A184B4D
:100390005B6823F47C135360154A154B5B6843F488
:1003A000E8135360124A124B1B6843F080731360CA
:1003B00000BF0F4B1B6803F00073002BF9D00C4AF1
:1003C0000B4B5B6823F003035360094A084B5B68DF
:1003D00043F00203536000BF054B5B6803F00C035E
:1003E000082BF9D100BF0C37BD4680BC704700BF59
:1003F000001002400020024080B582B000AF114BD7
:100400007B60114B3B6007E03B681A1D3A607A68DD
:10041000111D796012681A603B680C4A9342F3D34D
:100420000B480C494FF000028842B8BF40F8042B3B
:10043000FADBFFF727FF00F05BF800BF0837BD4687
:1004400080BD00BF3B4A00080000002034000020AF
:10045000340000205045002080B400AFFEE700BF0C
:1004600080B485B000AF7860104BFB60104A104B31
:100470009B6943F0100393610E4A0E4B5B6823F4B3
:10048000400353600B4A0B4B5B6843F4801353608B
:10049000084A084B1B6923F400531361054A054BB6
:1004A0001B6943F000531361E0E700BF10470008E9
:1004B000001002400010014080B485B000AF7860A9
:1004C000034BFB600023BB60F323BB60FAE700BF74
:1004D0002447000880B485B000AF7860034BFB6010
:1004E0000023BB60F323BB60FAE700BF3847000876
:1004F00080B582B002AF022003F05AFB00230193C3
:10050000012300930023F0220D490E4800F09EFACB
:1005100000230193012300930023F0220A490B4892
:1005200000F094FA00230193012300930023F022AA
:100530000749084800F08AFA00F04AFCFEE700BFCD
:1005400074470008610400087C470008B9040008EB
:1005500084470008D504000880B584B002AF0023AA
:100560007B6000F03DFA0A4B1B68002B0BD0094B57
:1005700001930423009300234FF480720649074837
:1005800000F064FA78607B6818460837BD4680BD85
:10059000780000207C0000208C47000885060008B9
:1005A00080B588B000AFF860B9607A603B60002326
:1005B000FB611A4B1B68002B2AD0BB683B617B6830
:1005C0007B61FB68BB61BB68052B18DC01F074F82C
:1005D0000346022B09D1114B186807F110010023C3
:1005E000BA6A02F05FFBF86112E00C4B186807F181
:1005F00010010023002202F055FBF86108E0074BD0
:10060000186807F1100100233A6802F015FDF8613F
:10061000FB6918462037BD4680BD00BF780000202A
:1006200080B586B002AF78603960154B1B68DB6817
:10063000DB68FB60FB680433184601F0F1F9FB68E6
:10064000DB69012B14D1FB689A697B68D1187B6840
:100650003A68F86800F0B8F80346002B08D0002389
:10066000009300237A680021F868FFF799FFB860CB
:10067000FB685B6AF868984700BF1037BD4680BDCD
:100680007000002080B584B000AF786007F10803E7
:10069000184600F057F8F860BB681946F86800F093
:1006A00003F800F0D3F8F1E780B584B000AF7860CC
:1006B000396000F0F3FB07F10803184600F064F816
:1006C000F860BB68002B30D13B68002B0AD17A68F8
:1006D000FB689A4206D800F0EFFBF9687868FFF7EC
:1006E0009FFF24E03B68002B08D0134B1B681B685E
:1006F000002B01D1012300E000233B600F4B186861
:100700007A68FB68D31A3A68194603F055F800F086
:10071000D3FB0346002B0AD1094B4FF080521A60DD
:10072000BFF34F8FBFF36F8F01E000F0C5FB00BF39
:100730001037BD4680BD00BF740000207800002047
:1007400004ED00E080B485B000AF78600D4B1B680D
:100750001B68002B01D1012200E000227B681A6097
:100760007B681B68002B05D1064B1B68DB681B6888
:10077000FB6001E00023FB60FB6818461437BD46B0
:1007800080BC70477000002080B584B000AF7860F6
:1007900000F032FCF8600B4B1B68FA689A4205D2F5
:1007A00000F0CAF87B6801221A6002E07B68002230
:1007B0001A60044AFB681360FB6818461037BD4690
:1007C00080BD00BF8000002080B586B000AFF8601B
:1007D000B9607A603B6000237B61FB68BA685A604D
:1007E000FB68FA681A61BA687B689A4212D87A681C
:1007F0003B68D21AFB689B699A4202D301237B6152
:100800001BE0104B1A68FB6804331946104601F0D0
:10081000CFF812E07A683B689A4206D2BA683B6821
:100820009A4202D301237B6107E0074B1A68FB68F9
:1008300004331946104601F0BBF87B691846183797
:10084000BD4680BD740000207000002080B58AB0D5
:1008500002AF60E0BB68002B5DDB3B69FB61FB69BD
:100860005B69002B04D0FB690433184601F0D8F80B
:100870003B1D1846FFF788FFB861BB68092B49D8B4
:1008800001A252F823F000BFB1080008B108000827
:10089000B108000817090008F30800080D0900084E
:1008A000B1080008B108000817090008F30800089B
:1008B000FA68FB699B69D118FB68BA69F869FFF7A8
:1008C00083FF0346002B26D0FB695B6AF8699847D3
:1008D000FB69DB69012B1ED1FA68FB699B691A442D
:1008E0000023009300230021F869FFF759FE786187
:1008F00011E0FA68FB699A61FB699A69BB69D118D2
:10090000BB69BA69F869FFF75FFF04E0F86903F0B3
:1009100041FB00E000BF074B1B6807F10801002204
:10092000184602F03DFC0346002B93D100BF203750
:10093000BD4680BD7800002080B588B002AF37E0AA
:10094000254B1B68DB681B687B61234B1B68DB68DE
:10095000DB683B613B690433184601F061F83B6991
:100960005B6A386998473B69DB69012B20D13B6999
:100970009A697B691344FB60FA687B699A420ED9D5
:100980003B69FA685A603B693A691A61124B1A6806
:100990003B6904331946104601F00AF808E00023C9
:1009A000009300237A6900213869FFF7F9FDB860E8
:1009B000094B1B681B68002BC2D1074B1B687B606F
:1009C000064B1B68044A1360044A7B68136000BF2F
:1009D0001837BD4680BD00BF7000002074000020A5
:1009E00080B500AF02F0E8FF124B1B68002B1DD151
:1009F000114800F08DFF114800F08AFF104B0E4A9D
:100A00001A60104B0D4A1A6000220C21052002F0DA
:100A100073F80246074B1A60064B1B68002B05D083
:100A2000044B1B680849184602F096FE02F0DCFFF2
:100A300000BF80BD78000020480000205C0000203E
:100A400070000020740000209447000880B58CB02E
:100A500004AFF860B9603B601346FB80FB889B00E5
:100A6000184603F027FA78617B69002B0ED07020BE
:100A700003F020FAF861FB69002B03D0FB697A6967
:100A80001A6305E0786903F085FA01E00023FB6151
:100A9000FB69002B13D0FA8800230393FB690293B0
:100AA000FB6A0193BB6A00933B68B968F86800F081
:100AB0000FF8F86900F094F80123BB6102E04FF0F1
:100AC000FF33BB61BB6918462037BD4680BD00BF00
:100AD00080B586B000AFF860B9607A603B60BB6AF1
:100AE000186B7B689B001A46A52103F0C3FDBB6A07
:100AF0001A6B7B6803F18043013B9B0013443B610D
:100B00003B6923F007033B6100237B6112E0BA6875
:100B10007B6913441978BA6A7B69134434330A46F3
:100B20001A70BA687B6913441B78002B06D07B6966
:100B300001337B617B690F2BE9D900E000BFBB6A01
:100B4000002283F843203B6A042B01D904233B6233
:100B5000BB6A3A6ADA62BB6A3A6ADA64BB6A002242
:100B60001A65BB6A0433184600F0F2FEBB6A1833FC
:100B7000184600F0EDFEBB6ABA6A1A613B6AC3F11F
:100B80000502BB6A9A61BB6ABA6A5A6200237B613A
:100B900009E0BA6A7B6914339B00134400225A604F
:100BA0007B6901337B617B69042BF2D9BB6A00222C
:100BB0009A66BB6A002283F86C203A68F968386943
:100BC00002F02EFE0246BB6A1A607B6A002B02D03E
:100BD0007B6ABA6A1A6000BF1837BD4680BD00BF85
:100BE00080B582B000AF786002F0E6FE534B1B6820
:100BF0000133524A1360524B1B68002B09D1504AF3
:100C00007B6813604D4B1B68012B10D100F0AAFCD0
:100C10000DE04C4B1B68002B09D1494B1B68DA6A6D
:100C20007B68DB6A9A4202D8454A7B681360464B70
:100C30001B680133444A1360434B1A687B685A644B
:100C40007B68002B39D07B6834331946786801F013
:100C500031FD7B68DB6A1946786801F0B5FD7B6879
:100C600003F134027B680321012001F02BFB374B99
:100C70001B881946786802F061FF03F027F80346E5
:100C8000184602F04DFF03461A46314B1B881340AD
:100C90009BB2002B11D0786802F042FF03461A463F
:100CA0002B4B1B8813409BB2002B06D079687B68C6
:100CB000DB6A1A46102001F0D7F9786802F030FF9D
:100CC00003461A46224B1B8813409BB2002B04D0CC
:100CD0007B681946302001F071F97B68DA6A1D4B98
:100CE0001B689A4203D97B68DB6A1A4A13607B68E7
:100CF000DA6A13469B0013449B00174A1A447B6828
:100D000004331946104600F02FFE02F06DFE0D4B25
:100D10001B68002B0ED00A4B1B68DA6A7B68DB6A03
:100D20009A4207D20D4B4FF080521A60BFF34F8F9B
:100D3000BFF36F8F00BF0837BD4680BD5C01002048
:100D40008400002068010020780100202600002097
:100D500024000020640100208800002004ED00E051
:100D600080B584B000AF78600023FB607B68002B07
:100D70001AD000F093F802F0A9FF0346184602F0DB
:100D8000CFFE03461A46104B1B8813409BB2002B24
:100D900003D079687A2001F011F90021786800F019
:100DA00027FD00F089F8F860FB68002B07D1074B9E
:100DB0004FF080521A60BFF34F8FBFF36F8F00BFA9
:100DC0001037BD4680BD00BF2400002004ED00E0C8
:100DD00080B584B002AF284B019300230093002319
:100DE000802226492648FFF731FE78607B68012B78
:100DF00002D1FFF7B1FB78607B68012B37D14FF050
:100E0000220383F31188BFF36F8FBFF34F8F3B60D3
:100E10001C4B4FF0FF321A601B4B01221A601B4B18
:100E200000221A601A4B01221A6002F04FFF03469B
:100E3000184602F075FE03461A46164B1B881340EF
:100E40009BB2002B11D0144B1B68184602F046FFD2
:100E50000346002B09D0104B1B6819460E4B1B682C
:100E6000DB6A1A46372001F0FFF802F045FD00BFAB
:100E70000837BD4680BD00BF800100209C470008A8
:100E8000351500087C010020680100206001002069
:100E900028080020240000208400002080B400AF37
:100EA000044B1B680133034A136000BFBD4680BC7E
:100EB000704700BF8401002080B584B000AF0023DC
:100EC000FB600023BB6002F077FD414B1B68013BD8
:100ED0003F4A13603E4B1B68002B72D13D4B1B6891
:100EE000002B6ED03FE03C4BDB68DB68FB60FB68AF
:100EF0001833184600F094FDFB680433184600F0E0
:100F00008FFDF86802F00CFE03461A46334B1B882F
:100F100013409BB2002B04D0FB681946302001F02F
:100F20004DF8FB68DA6A2E4B1B689A4203D9FB68BE
:100F3000DB6A2B4A1360FB68DA6A13469B00134492
:100F40009B00284A1A44FB6804331946104600F0F7
:100F50000BFDFB68DA6A244B1B68DB6A9A4202D3FA
:100F6000224B01221A601C4B1B68002BBBD1FB6873
:100F7000002B01D000F072FB1D4B1B687B607B686F
:100F8000002B10D000F046F80346002B02D0174B80
:100F900001221A607B68013B7B607B68002BF1D1EA
:100FA000134B00221A60114B1B68002B09D0012340
:100FB000BB60104B4FF080521A60BFF34F8FBFF3EE
:100FC0006F8F02F011FDBB6818461037BD4680BD1B
:100FD000840100205C0100201C010020240000206E
:100FE000640100208800002084000020700100209F
:100FF0006C01002004ED00E080B483B000AF044B2E
:101000001B687B607B6818460C37BD4680BC704708
:101010006001002080B586B000AF00237B615B4B90
:101020001B68012B03D05A4B1B68002B04D1594B72
:101030001B680133574A1360544B1B68002B06D1C1
:10104000554B1B6801331946312000F0B7FF4F4B59
:101050001B68002B40F089804F4B1B6801333B61BC
:101060004D4A3B6913603B69002B10D14B4B1B6809
:10107000FB604B4B1B68494A1360494AFB6813608D
:10108000484B1B680133474A136000F0E7FA464BB0
:101090001B683A699A4259D3404B1B681B68002B66
:1010A00004D1414B4FF0FF321A604FE03B4B1B68BD
:1010B000DB68DB68BB60BB685B687B603A697B6848
:1010C0009A4203D2384A7B6813603FE0BB6804331E
:1010D000184600F0A5FCBB689B6A002B04D0BB68D7
:1010E0001833184600F09CFCB86802F019FD03465E
:1010F0001A462E4B1B8813409BB2002B04D0BB68B2
:101100001946302000F05AFFBB68DA6A284B1B688A
:101110009A4203D9BB68DB6A254A1360BB68DA6A66
:1011200013469B0013449B00224A1A44BB680433B5
:101130001946104600F018FCBB68DA6A1E4B1B68A3
:10114000DB6A9A42A8D301237B61A5E71A4B1B688F
:10115000DA6A184913469B0013449B000B441B6832
:10116000012B07D901237B6104E0094B1B68013384
:10117000074A1360114B1B68002B01D001237B61D0
:101180007B6918461837BD4680BD00BF840100202A
:101190006C010020080800206001002014010020DC
:1011A00018010020740100207C0100202400002090
:1011B00064010020880000208400002070010020CD
:1011C00080B582B000AF314B1B68002B03D0304B91
:1011D00001221A6056E02E4B00221A602D4B1B682C
:1011E0007B6002E07B68013B7B602B497A68134699
:1011F0009B0013449B000B441B68002BF2D07A68C1
:1012000013469B0013449B00234A13443B603B68F6
:101210005B685A683B685A603B685A683B680833A9
:101220009A4204D13B685B685A683B685A603B68E5
:101230005B68DB68194A1360164A7B681360184BB9
:1012400001221A6002F042FD0346184602F068FCD3
:1012500003461A46134B1B8813409BB2002B11D038
:101260000E4B1B68184602F039FD0346002B09D0CF
:101270000A4B1B681946094B1B68DB6A1A46372064
:1012800000F0F2FE00BF0837BD4680BD840100209B
:1012900070010020640100208800002084000020EC
:1012A000280800202400002080B582B000AF7860BC
:1012B0003960074B1B6818331946786800F078FBD3
:1012C0000121386800F094FA00BF0837BD4680BDA0
:1012D0008400002080B584B000AFF860B9607A6007
:1012E000154B1B6818331946F86800F03DFB7B6806
:1012F000002B02D04FF0FF33BB6002F0E7FC034647
:10130000184602F00DFC03461A460C4B1B8813408E
:101310009BB2002B07D00A4B1A68BB6813441946CE
:10132000792000F04BFE7968B86800F061FA00BFE0
:101330001037BD4680BD00BF84000020240000207F
:101340006001002080B584B000AF78607B68DB6806
:10135000DB68BB60BB681833184600F061FB264BA6
:101360001B68002B2DD1BB680433184600F058FBD6
:10137000B86802F0D5FB03461A46204B1B88134081
:101380009BB2002B04D0BB681946302000F016FE3B
:10139000BB68DA6A1A4B1B689A4203D9BB68DB6ADE
:1013A000174A1360BB68DA6A13469B0013449B001C
:1013B000144A1A44BB6804331946104600F0D4FAA4
:1013C00005E0BB68183319460F4800F0CDFABB683A
:1013D000DA6A0E4B1B68DB6A9A4205D90123FB606F
:1013E0000B4B01221A6001E00023FB60FB681846EA
:1013F0001037BD4680BD00BF8401002024000020BE
:1014000064010020880000201C01002084000020CE
:101410007001002080B483B000AF7860064B1A687A
:101420007B681A60054B1A687B685A6000BF0C37EE
:10143000BD4680BC704700BF7401002060010020E1
:1014400080B586B000AF7860396002F0B5FA1D4B08
:101450001B683B617B685B683A69D31AFB603B6839
:101460001B68B3F1FF3F02D100237B6123E07B685F
:101470001A68154B1B689A4207D07B685A683B690B
:101480009A4202D801237B6115E03B681A68FB6829
:101490009A420BD93B681A68FB68D21A3B681A60FB
:1014A0007868FFF7B7FF00237B6104E03B68002208
:1014B0001A6001237B6102F097FA7B69184618379E
:1014C000BD4680BD600100207401002080B400AFE3
:1014D000034B01221A6000BFBD4680BC704700BFAD
:1014E0007001002080B485B000AF78607B68002B6D
:1014F00005D07B68BB60BB689B6CFB6001E0002390
:10150000FB60FB6818461437BD4680BC704700BFBF
:1015100080B485B000AF786039607B68002B04D060
:101520007B68FB60FB683A689A6400BF1437BD466D
:1015300080BC704780B582B000AF786000F052F890
:10154000064B1B68012BF9D9054B4FF080521A60EE
:10155000BFF34F8FBFF36F8FF0E700BF880000200D
:1015600004ED00E080B582B000AF00237B600CE0AA
:101570007A6813469B0013449B00124A1344184692
:1015800000F0C6F97B6801337B607B68042BEFD9E0
:101590000D4800F0BDF90D4800F0BAF90C4800F014
:1015A000B7F90C4800F0B4F90B4800F0B1F90B4B57
:1015B000054A1A600A4B054A1A6000BF0837BD4643
:1015C00080BD00BF88000020EC000020000100204A
:1015D0001C010020300100204801002014010020DF
:1015E0001801002080B582B000AF19E002F0E4F9E4
:1015F0000F4BDB68DB687B607B680433184600F0C8
:101600000FFA0C4B1B68013B0A4A13600A4B1B681C
:10161000013B094A136002F0E7F9786800F00EF820
:10162000054B1B68002BE1D100BF0837BD4680BDCC
:10163000300100205C0100204401002080B582B010
:1016400000AF78607B681B6B184602F0A3FC7868DB
:1016500002F0A0FC00BF0837BD4680BD80B483B057
:1016600000AF0C4B1B681B68002B04D10A4B4FF0DA
:10167000FF321A6008E0074B1B68DB68DB687B60A1
:101680007B685B68044A136000BF0C37BD4680BCB2
:10169000704700BF140100207C01002080B483B09B
:1016A00000AF044B1B687B607B6818460C37BD4657
:1016B00080BC70478400002080B483B000AF0B4B27
:1016C0001B68002B02D101237B6008E0084B1B68DC
:1016D000002B02D102237B6001E000237B607B684A
:1016E00018460C37BD4680BC704700BF680100201B
:1016F0008401002080B584B000AF78607B68BB6057
:101700000023FB607B68002B67D0BB681B6D5A1EF3
:10171000BB681A65BB68DA6ABB68DB6C9A425CD04E
:10172000BB681B6D002B58D1BB680433184600F012
:1017300077F902F0CBFA0346184602F0F1F90346B6
:101740001A46284B1B8813409BB2002B11D0B86857
:1017500002F0E6F903461A46224B1B8813409BB25F
:10176000002B06D0B968BB68DB6C1A46062000F077
:101770007BFCBB68DA6CBB68DA62BB68DB6AC3F10E
:101780000502BB689A61B86802F0CAF903461A46B6
:10179000144B1B8813409BB2002B04D0BB68194626
:1017A000302000F00BFCBB68DA6A0F4B1B689A42D2
:1017B00003D9BB68DB6A0C4A1360BB68DA6A13465C
:1017C0009B0013449B00094A1A44BB680433194622
:1017D000104600F0C9F80123FB60FB68184610377B
:1017E000BD4680BD24000020640100208800002048
:1017F00080B584B000AF78603960214B1B68FB6016
:10180000204B1B680433184600F00AF97B68B3F1DB
:10181000FF3F0AD13B68002B07D01A4B1B680433EB
:101820001946194800F0A0F826E0FA687B681344CE
:10183000BB60144B1B68BA685A60BA68FB689A426E
:1018400009D2124B1A680F4B1B6804331946104615
:1018500000F0AEF810E00E4B1A680A4B1B68043318
:101860001946104600F0A4F80A4B1B68BA689A4261
:1018700002D2084ABB68136000BF1037BD4680BD66
:101880006001002084000020480100201801002091
:10189000140100207C01002080B483B000AF786088
:1018A000194A194B9B6943F010039361174A174B70
:1018B0005B6823F440035360144A144B5B6843F4A1
:1018C000801353607B68002B0CD1104A0F4B1B69AF
:1018D00043F4005313610D4A0C4B1B6923F0005372
:1018E00013610BE0094A094B1B6923F40053136190
:1018F000064A064B1B6943F00053136100BF0C37C7
:10190000BD4680BC704700BF00100240001001407F
:1019100080B483B000AF78607B6803F108027B6815
:101920005A607B684FF0FF329A607B6803F10802CF
:101930007B68DA607B6803F108027B681A617B6868
:1019400000221A6000BF0C37BD4680BC704700BF44
:1019500080B483B000AF78607B6800221A6100BF5A
:101960000C37BD4680BC704780B485B000AF78604E
:1019700039607B685B68FB603B68FA685A60FB68AB
:101980009A683B689A60FB689B683A685A60FB6893
:101990003A689A603B687A681A617B681B685A1CCF
:1019A0007B681A6000BF1437BD4680BC704700BF1B
:1019B00080B485B000AF786039603B681B68BB605D
:1019C000BB68B3F1FF3F03D17B681B69FB600CE090
:1019D0007B680833FB6002E0FB685B68FB60FB68C8
:1019E0005B681A68BB689A42F6D9FB685A683B681C
:1019F0005A603B685B683A689A603B68FA689A602C
:101A0000FB683A685A603B687A681A617B681B68B1
:101A10005A1C7B681A6000BF1437BD4680BC7047F3
:101A200080B485B000AF78607B681B69FB607B6821
:101A30005B687A6892689A607B689B687A6852688B
:101A40005A60FB685A687B689A4203D17B689A683F
:101A5000FB685A607B6800221A61FB681B685A1E8B
:101A6000FB681A60FB681B6818461437BD4680BCCB
:101A7000704700BF80B584B000AF78600323FB815E
:101A80007968786800F016FEFB89B3F5805F04D3AF
:101A9000012000F05DFF7B6806E07B68F9897A68C9
:101AA000012000F00FFC7B6818461037BD4680BD52
:101AB00080B400AF7C4B1B68013B692B00F2EE80C9
:101AC00001A252F823F000BF891C00088D1C0008F9
:101AD000911C0008951C0008991C00089D1C00081A
:101AE0009D1C00089D1C00089D1C00089D1C0008F2
:101AF0009D1C00089D1C00089D1C00089D1C0008E2
:101B00009D1C00089D1C00089D1C00089D1C0008D1
:101B10009D1C00089D1C00089D1C00089D1C0008C1
:101B20009D1C00089D1C00089D1C00089D1C0008B1
:101B30009D1C00089D1C00089D1C00089D1C0008A1
:101B40009D1C00089D1C00089D1C00089D1C000891
:101B50009D1C00089D1C00089D1C00089D1C000881
:101B60009D1C00089D1C00089D1C00089D1C000871
:101B70009D1C00089D1C00089D1C00089D1C000861
:101B80009D1C00089D1C00089D1C00089D1C000851
:101B90009D1C00089D1C00089D1C00089D1C000841
:101BA0009D1C00089D1C00089D1C00089D1C000831
:101BB0009D1C00089D1C00089D1C00089D1C000821
:101BC0009D1C00089D1C00089D1C00089D1C000811
:101BD0009D1C00089D1C00089D1C00089D1C000801
:101BE0009D1C00089D1C00089D1C00089D1C0008F1
:101BF0009D1C00089D1C00089D1C00089D1C0008E1
:101C00009D1C00089D1C00089D1C00089D1C0008D0
:101C10009D1C00089D1C00089D1C00089D1C0008C0
:101C20009D1C00089D1C00089D1C00089D1C0008B0
:101C30009D1C00089D1C00089D1C00089D1C0008A0
:101C40009D1C00089D1C00089D1C00089D1C000890
:101C50009D1C00089D1C0008711C0008751C0008D4
:101C6000791C00087D1C0008811C0008851C0008E8
:101C70000E4B14E00E4B12E00E4B10E00E4B0EE03C
:101C80000E4B0CE00E4B0AE00E4B08E00E4B06E04C
:101C90000E4B04E00E4B02E00E4B00E00023184612
:101CA000BD4680BC704700BFF4070020B447000861
:101CB000EC47000820480008544800088048000805
:101CC000B4480008E84800081449000844490008DE
:101CD00070490008A449000890B589B000AF786049
:101CE000234B1A687B689A423DD0224B1B68002B1D
:101CF00002D10223FB6102E001F0E8FFF861EFF39B
:101D000010833B613B697B610123FB60FB6883F3CC
:101D10001088174A7B681360154B1B68002B1CD07A
:101D2000154B00221A60154BFF221A7000F0D2F8F2
:101D300000F02AF800F07CF8114B1868FC69114B90
:101D40001B685A1C0F490A6022460146012000F018
:101D5000E5F900F05BFE00F015F97B69BB61BB693A
:101D600083F3108800E000BF2437BD4690BD00BF5C
:101D7000FC07002028080020000800201000002098
:101D800008080020F807002080B590B000AF0023BD
:101D9000FB630023BB63EFF31083FB62FB6A3B63CF
:101DA00001237B627B6A83F310881F4B1B68002B27
:101DB00031D00023FB632AE03B46BB62BB6A002BA9
:101DC00022D00023BB630DE0BB6B9B00BA6A1344B7
:101DD000F96BBA6B0A44154951F822201A60BB6BA3
:101DE0000133BB63BB6B072BEED900233B6207F1CA
:101DF00020031A462021B86A02F03EF80346002B61
:101E000002D06A2000F090FDFB6B0833FB63FB6B94
:101E1000B3F5A07FD0D33B6B7B637B6B83F31088E0
:101E200000BF4037BD4680BDFC0700208C0100206C
:101E300080B58AB000AF00237B6200233B62EFF3E2
:101E400010837B617B69BB610123FB60FB6883F3CB
:101E500010881E4B1B68002B2FD000237B6229E0CB
:101E60003B1D3B613B69002B21D000233B620DE011
:101E70003B6A9B003A691344796A3A6A0A441449F6
:101E800051F822201A603B6A01333B623B6A012B06
:101E9000EED900233B603B461A460821386901F021
:101EA000EBFF0346002B02D06A2000F03DFD7B6A69
:101EB00002337B627B6A4F2BD2D9BB69FB61FB6922
:101EC00083F3108800BF2837BD4680BDFC07002083
:101ED0009006002080B58CB000AFEFF310837B62DA
:101EE0007B6ABB620123FB61FB6983F31088214B92
:101EF0001B68002B35D03B1D3B623B6A002B30D06A
:101F00001D4B1A683B6A1A601C4B1A883B6A9A8000
:101F10003B6A41F6A122DA803B6A00229A60184BA4
:101F20001A683B6ADA603B6A9A683B6A9A603B6A65
:101F300020221A823B6A28225A823B6A08229A820D
:101F40003B6A2822DA8200233B603B461A4618216E
:101F5000386A01F091FF0346002B02D06A2000F09E
:101F6000E3FCBB6AFB62FB6A83F3108800BF303777
:101F7000BD4680BDFC070020140000201800002092
:101F80008801002080B582B000AF0A4B1B68002B8F
:101F90000CD0FFF78DFD78607B68002B06D0064BD8
:101FA0001B687A681946902000F09EFA00BF083737
:101FB000BD4680BDFC070020A444002080B58CB045
:101FC00000AF03463960FB80FB88B3F5805F03D325
:101FD000012000F0BDFC3FE0EFF310837B627B6AE1
:101FE000BB620123FB61FB6983F310881C4B1B68F8
:101FF000002B2CD01B4B1B6801331A4A136007F1CE
:1020000010033B623B6A002B21D0FB8843F48053D2
:102010009AB23B6A1A80134B1B689AB23B6A5A8089
:1020200000F0EAFC02463B6A5A603B6A3A689A60F2
:102030000023FB6007F10C031A460C21386A01F0FB
:102040001BFF0346002B02D06A2000F06DFCBB6A28
:10205000FB62FB6A83F310883037BD4680BD00BF4A
:10206000FC0700200008002080B58EB000AF0346BA
:10207000B9607A60FB81FB89B3F5805F03D30120EF
:1020800000F066FC42E0EFF31083FB62FB6A3B6307
:1020900001237B627B6A83F310881E4B1B68002B35
:1020A0002FD01D4B1B6801331B4A136007F114032B
:1020B000BB62BB6A002B24D0FB8943F400539AB265
:1020C000BB6A1A80144B1B689AB2BB6A5A8000F034
:1020D00093FC0246BB6A5A60BB6ABA689A60BB6AE4
:1020E0007A68DA6000233B6107F110031A46102179
:1020F000B86A01F0C1FE0346002B02D06A2000F04E
:1021000013FC3B6B7B637B6B83F310883837BD46D6
:1021100080BD00BFFC0700200008002080B590B003
:1021200000AFB9607A603B600346FB81FB89B3F581
:10213000805F03D3012000F00BFC45E0EFF3108338
:102140007B637B6BBB630123FB62FB6A83F31088B9
:102150001F4B1B68002B32D01E4B1B6801331D4ADE
:10216000136007F118033B633B6B002B27D0FB89FF
:1021700043F440539AB23B6B1A80164B1B689AB2D9
:102180003B6B5A8000F038FC02463B6B5A603B6B5D
:10219000BA689A603B6B7A68DA603B6B3A681A619E
:1021A00000237B6107F114031A461421386B01F0F8
:1021B00063FE0346002B02D06A2000F0B5FBBB6B28
:1021C000FB63FB6B83F310884037BD4680BD00BFC7
:1021D000FC070020000800200EB480B59FB000AFBF
:1021E0007860B7F88430B3F5805F03D3012000F046
:1021F000AFFB5DE0EFF31083BB66BB6EFB660123B4
:10220000BB65BB6D83F310882C4B1B68002B4AD039
:102210007B6802339B007B66294B1B680133284A8D
:10222000136007F10C033B663B6E002B3BD07B68D1
:102230009BB21B039AB2B7F8843013439AB23B6E39
:102240001A801F4B1B689AB23B6E5A8000F0D4FB79
:1022500002463B6E5A6007F188037B6500237B676B
:102260000EE07B6F02339B003A6E1344FB657B6D7F
:102270001A1D7A651A68FB6D1A607B6F01337B67E4
:102280007A6F7B689A42ECDB00233B657B6E07F13B
:1022900050021946386E01F0EFFD0346002B02D0C4
:1022A0006A2000F041FBFB6E3B673B6F83F31088B5
:1022B0007C37BD46BDE8804003B07047FC07002076
:1022C000000800200CB480B586B002AF78600B46E1
:1022D0007B800023FB6002E0FB680133FB60FB684E
:1022E000BA6913441B78002B02D0FB68332BF3DD53
:1022F00007F11C03BB60798807F108030193BB69F0
:102300000093FB680022786800F008F800BF1037DF
:10231000BD46BDE8804002B0704700BF80B5A4B0A4
:1023200000AFF8607A603B600B467B810023C7F802
:1023300084303B680433002B00DA03339B10C7F86A
:102340008030FB689B00C7F88430D7F88020FB689A
:102350001344C7F88C30D7F88C300F2B14DDD7F826
:102360008C300F3B9B00FB675C4B1B68FA6F9A42FB
:1023700002D95A4AFB6F13600F23C7F88C30D7F885
:102380008430C3F13C033B60EFF310833B673B6F4A
:102390007B670123FB65FB6D83F31088504B1B6843
:1023A000002B00F09280D7F88C3002339B00FB6644
:1023B0004C4B1B6801334B4A136007F11403BB6697
:1023C000BB6E002B00F08180D7F88C309BB21B03D2
:1023D0009AB27B8913439AB2BB6E1A80414B1B6839
:1023E0009AB2BB6E5A8000F007FB0246BB6E5A6081
:1023F000BB6E08337B660023C7F8883021E07B681A
:10240000002B0BD0D7F88830002B07D1D7F88830B5
:102410009B007A6E13447A681A600DE0D7F8883012
:102420009B007A6E1A44D7F89C301B68181DD7F8A9
:102430009C1008601B681360D7F888300133C7F818
:102440008830D7F88820FB689A42D8DBBB6E083307
:102450003B660023C7F8883013E0D7F88420D7F80C
:10246000883013441A463B6E1344D7F88820D7F8B7
:1024700098100A4412781A70D7F888300133C7F8D8
:102480008830D7F888203B689A42E6DBD7F884305A
:10249000C3F13C023B689A4208DDD7F884203B68D0
:1024A00013441A463B6E134400221A700023BB6586
:1024B000FB6E07F158021946B86E01F0DDFC0346C9
:1024C000002B02D06A2000F02FFA7B6FBB67BB6F36
:1024D00083F3108800BF9037BD4680BD24080020DC
:1024E000FC0700200008002080B5A6B000AF03461E
:1024F000B9607A60FB810023C7F888300023C7F8F1
:1025000084300023C7F8943004E0D7F894300133C6
:10251000C7F89430D7F894307A6813441B78002BAE
:1025200003D0D7F89430332BEFDDD7F89430043351
:10253000002B00DA03339B10C7F88030BB68002BF8
:1025400007D0D7F888300133C7F88830FB890133CA
:10255000FB81D7F888309B00C7F88430D7F88020FB
:10256000D7F888301344C7F89030D7F890300F2B45
:1025700015DDD7F890300F3B9B00FB674A4B1B687B
:10258000FA6F9A4202D9484AFB6F13600F23C7F8CB
:102590009030D7F88430C3F13C03C7F89430EFF3A0
:1025A00010833B673B6F7B670123FB65FB6D83F308
:1025B00010883E4B1B68002B6DD0D7F8903002334B
:1025C0009B00FB663A4B1B680133394A136007F1E5
:1025D0001403BB66BB6E002B5DD0D7F890309BB266
:1025E0001B039AB2FB8913439AB2BB6E1A80304B1D
:1025F0001B689AB2BB6E5A8000F0FEF90246BB6EB1
:102600005A60BB6E08337B66BB68002B02D0BA6889
:102610007B6E1A60BB6E08333B660023C7F88C30B4
:1026200012E0D7F88420D7F88C3013441A463B6E5A
:102630001344D7F88C2079680A4412781A70D7F8B6
:102640008C300133C7F88C30D7F88C20D7F8943011
:102650009A42E6DBD7F88430C3F13C02D7F89430D5
:102660009A4209DDD7F88420D7F8943013441A46EB
:102670003B6E134400221A700023BB65FB6E07F10A
:1026800058021946B86E01F0F7FB0346002B02D042
:102690006A2000F049F97B6FBB67BB6F83F310883A
:1026A00000BF9837BD4680BD24080020FC070020ED
:1026B0000008002080B48BB000AF78603960EFF381
:1026C00010837B617B69BB610123BB60BB6883F3C3
:1026D0001088394B1B683B6200237B6210E07B6AE9
:1026E0009B089B00354A13443B613B691A687B6831
:1026F0009A4202D17B6A3B6207E07B6A20337B62AD
:102700002D4B1B687A6A9A42E9D33B6AB3F5A06FF6
:1027100043D23B6A9B087A68284941F823203B6AE8
:102720000433264A1344FB6000237B6210E0FA68FE
:102730007B6A134439687A6A0A4412781A703A68D4
:102740007B6A13441B78002B06D07B6A01337B62C3
:102750007B6A182BEBD904E000BF02E07B6A0133EF
:102760007B623A687B6A13441B78002B02D07B6A39
:102770007F2BF3D9124B1B687A6A9A4202D9104A0E
:102780007B6A13600C4B1B683A6A9A420AD10A4B67
:102790001B682033084A136004E00A4B1B680133AE
:1027A000084A1360BB69FB61FB6983F3108800BFB3
:1027B0002C37BD4680BC70478C0600208C01002061
:1027C000200800201808002080B48BB000AF78608B
:1027D0003960EFF310837B617B69BB610123FB6090
:1027E000FB6883F31088234B1B683B6200237B62EA
:1027F00010E07B6A9B089B001F4A13443B613B69C6
:102800001A687B689A4202D17B6A3B6207E07B6A66
:1028100008337B62174B1B687A6A9A42E9D33B6A9A
:10282000B3F5A07F17D23B6A9B087A68124941F83A
:1028300023203B6A9B0801330F493A6841F8232063
:102840000C4B1B683A6A9A420AD10A4B1B68083340
:10285000084A136004E0094B1B680133074A136000
:10286000BB69FB61FB6983F3108800BF2C37BD4651
:1028700080BC7047D0070020900600201C08002074
:1028800080B485B000AF78607B681B789AB27B68B3
:102890005B789BB213449AB27B689B789BB21344DB
:1028A0009AB27B68DB789BB213449AB27B681B793F
:1028B0009BB213449AB27B685B799BB213449BB280
:1028C000DB43FB817B68DA79FB891B0A9BB2DBB2B5
:1028D0009A4201D000230EE07B689A79FB89DBB233
:1028E0009A4201D0002306E07B681B78012B01D9B6
:1028F000002300E0012318461437BD4680BC704712
:1029000080B582B000AF78607B681B78012B00D067
:1029100005E07B685B781846FFF7DEF900BF00BF73
:102920000837BD4680BD00BF80B582B000AF78607B
:10293000064B1B68002B04D1044A7B681360FFF729
:1029400021FB00BF0837BD4680BD00BFF407002053
:1029500080B582B000AF78600B4B1B68002B0ED1A6
:10296000094A7B681360FFF70DFB084B1B68084A98
:1029700019469020FFF7B8FD0020FFF7ADF900BF22
:102980000837BD4680BD00BFF4070020A4440020E6
:10299000D849000880B500AF124B134A1A60134A99
:1029A000124B1B6843F080731360104B1B68002BA5
:1029B00003D10320FFF7CCFF12E00D4B1B6803F09F
:1029C0000073002B03D00420FFF7C2FF08E0094B7F
:1029D00000221A60064A064B1B6843F0010313608D
:1029E00000BF80BDB01F00E055CEACC5FCED00E0DF
:1029F000001000E0041000E080B400AF024B1B6840
:102A00001846BD4680BC7047041000E080B582B017
:102A100002AF0A4B1B68002B02D1084B084A1A6010
:102A2000064B1A680023019301230093FA23022125
:102A30000420FFF7D1FB00BFBD4680BD0C0800207D
:102A400000127A0080B584B000AF786039607B688E
:102A5000FB6000F0B1FFFB681A68FB68DB6BF9688C
:102A6000096C01FB03F31A44FB689A60FB680022BF
:102A70009A63FB681A68FB685A60FB681A68FB680F
:102A8000DB6B013BF968096C01FB03F31A44FB683B
:102A9000DA60FB68FF2283F84420FB68FF2283F89A
:102AA00045203B68002B14D1FB681B69002B1AD012
:102AB000FB6810331846FEF745FC0346002B12D086
:102AC0000C4B4FF080521A60BFF34F8FBFF36F8FE4
:102AD00009E0FB6810331846FEF71AFFFB68243341
:102AE0001846FEF715FF00F07FFF01231846103748
:102AF000BD4680BD04ED00E080B58AB002AFF8604D
:102B0000B9601346FB71BB68002B02D10023FB6147
:102B100004E0FB68BA6802FB03F3FB61FB69503316
:102B2000184601F0C7F9B861BB69002B0ED0BB692C
:102B30007B617B6950337B61FA79BB6900931346F3
:102B40007A69B968F86800F03BF832E001F0BEF845
:102B50000346184600F0E4FF03461A46174B1B884D
:102B600013409BB2002B24D0FB79042B21D801A267
:102B700052F823F0892B00089F2B0008B32B000884
:102B8000952B0008A92B0008FA6800214120FFF7C7
:102B90006BFA0DE000214220FFF710FA08E0002157
:102BA0004320FFF70BFA03E000214720FFF706FA66
:102BB00000BFBB6918462037BD4680BD24000020F9
:102BC00080B584B000AFF860B9607A60FB70BB6814
:102BD000002B03D1BB69BA691A6002E0BB697A684D
:102BE0001A60BB69FA68DA63BB69BA681A640121C2
:102BF000B869FFF727FFBB69FA7883F84C20274BA9
:102C00001B881946B86900F0BDFF01F05FF8034664
:102C1000184600F085FF03461A46214B1B881340D7
:102C20009BB2002B35D0B86900F09EFF03461A46D0
:102C30001B4B1B8813409BB2002B2AD0BB6993F817
:102C40004C30042B25D801A252F823F0612C000847
:102C50007B2C0008932C00086F2C0008872C0008A0
:102C6000BB69FA6819461120FFF7FEF910E0BB694D
:102C700019461220FFF7A2F90AE0BB691946132092
:102C8000FFF79CF904E0BB6919461720FFF796F996
:102C900000BF00BF1037BD4680BD00BF260000202A
:102CA0002400002080B58AB000AFF860B9607A6077
:102CB0003B6000237B62FB683B6200F07DFE3B6A69
:102CC0009A6B3B6ADB6B9A4202D33B68022B72D150
:102CD00000F0FCFF0346184600F022FF03461A46A8
:102CE000AA4B1B8813409BB2002B3AD0386A00F0E5
:102CF0003BFF03461A46A54B1B8813409BB2002B93
:102D00002FD03B6A93F84C30042B2AD801A252F8FA
:102D100023F000BF292D0008572D0008452D00087D
:102D2000452D0008572D00083B68002B01D150208D
:102D300000E0C020396A3B6A9B6B01331A46FFF7FB
:102D400093F90DE0396A3B6A9B6B01331A465120B7
:102D5000FFF78AF904E03B6A19465220FFF72EF983
:102D600000BF3A68B968386A00F0E6FBF8613B6A70
:102D70005B6A002B10D03B6A24331846FEF7E2FA58
:102D80000346002B13D0824B4FF080521A60BFF3E2
:102D90004F8FBFF36F8F0AE0FB69002B07D07C4B8E
:102DA0004FF080521A60BFF34F8FBFF36F8F00F068
:102DB0001BFE01233AE17B68002B4AD100F014FE90
:102DC00000F084FF0346184600F0AAFE03461A46A8
:102DD0006E4B1B8813409BB2002B38D0386A00F032
:102DE000C3FE03461A46694B1B8813409BB2002B57
:102DF0002DD03B6A93F84C30042B28D801A252F80E
:102E000023F000BF192E0008432E0008332E0008BF
:102E1000332E0008432E00083B68002B01D15320BD
:102E200000E0C120396A3B6A9B6B1A46FFF71CF928
:102E30000CE0396A3B6A9B6B1A465420FFF714F981
:102E400004E03B6A19465520FFF7B8F800BF00239D
:102E5000ECE07B6A002B06D107F114031846FEF75D
:102E6000D9FA01237B6200F0BFFDFEF717F800F0EE
:102E7000A3FD3B6A93F844305BB2B3F1FF3F03D14B
:102E80003B6A002283F844203B6A93F845305BB2EA
:102E9000B3F1FF3F03D13B6A002283F8452000F0E5
:102EA000A3FD3A1D07F1140311461846FEF7C8FAB0
:102EB0000346002B6ED1386A00F036FC0346002B27
:102EC0005ED000F003FF0346184600F029FE0346DB
:102ED0001A462E4B1B8813409BB2002B37D0386A02
:102EE00000F042FE03461A46284B1B8813409BB253
:102EF000002B2CD03B6A93F84C30042B27D801A22E
:102F000052F823F0192F0008432F0008332F000830
:102F1000332F0008432F00083B68002B01D15620B7
:102F200000E0C220396A3B6A9B6B1A46FFF79CF8A7
:102F30000CE0396A3B6A9B6B1A465720FFF794F8FE
:102F400004E03B6A19465820FFF738F800BF3B6A97
:102F500010337A6811461846FEF7A6F9386A00F071
:102F60007BFBFDF7A9FF0346002B7FF4A6AE084BC1
:102F70004FF080521A60BFF34F8FBFF36F8F9CE604
:102F8000386A00F069FBFDF797FF96E62400002001
:102F900004ED00E0386A00F05FFBFDF78DFF00F004
:102FA00095FE0346184600F0BBFD03461A46214B2A
:102FB0001B8813409BB2002B37D0386A00F0D4FD39
:102FC00003461A461B4B1B8813409BB2002B2CD088
:102FD0003B6A93F84C30042B27D801A252F823F017
:102FE000F52F00081F3000080F3000080F300008D0
:102FF0001F3000083B68002B01D1532000E0C120A6
:10300000396A3B6A9B6B1A46FFF72EF80CE0396A67
:103010003B6A9B6B1A465420FFF726F804E03B6A94
:1030200019465520FEF7CAFF00BF0023184628376F
:10303000BD4680BD2400002080B58CB000AFF86094
:10304000B9607A603B60FB68BB6200F047FDEFF35C
:1030500011824FF0220383F31188BFF36F8FBFF308
:103060004F8FBA617B61BB693B62BB6A9A6BBB6A7B
:10307000DB6B9A4202D33B68022B57D1BB6A93F8B1
:103080004530FB77B86A00F06FFD03461A46434BA4
:103090001B8813409BB2002B21D0BB6A93F84C30A5
:1030A000002B05D0002B1ADB023B012B17D80DE0BB
:1030B0003B68002B01D1592000E0C320B96ABB6AEC
:1030C0009B6B01331A46FEF7CFFF07E0B96ABB6A74
:1030D0009B6B01331A465A20FEF7C6FF00BF3A68C1
:1030E000B968B86A00F028FA97F91F30B3F1FF3FCA
:1030F00012D1BB6A5B6A002B15D0BB6A2433184619
:10310000FEF720F90346002B0DD07B68002B0AD078
:103110007B6801221A6006E0FB7F0133DBB25AB202
:10312000BB6A83F845200123FB622CE0B86A00F0FB
:103130001BFD03461A46194B1B8813409BB2002BFC
:103140001FD0BB6A93F84C30002B05D0002B18DB46
:10315000023B012B15D80CE03B68002B01D15C2011
:1031600000E0C420B96ABB6A9B6B1A46FEF77CFF7D
:1031700006E0B96ABB6A9B6B1A465D20FEF774FFD6
:1031800000BF0023FB623B6A7B627B6A83F311888A
:10319000FB6A18463037BD4680BD00BF24000020C2
:1031A00080B58AB000AFF860B9607A6000237B62B6
:1031B000FB683B6200F000FC3B6A9B6BFB61FB69B8
:1031C000002B64D0B968386A00F020FA00F07EFD68
:1031D0000346184600F0A4FC03461A46B94B1B8868
:1031E00013409BB2002B36D0386A00F0BDFC03467A
:1031F0001A46B44B1B8813409BB2002B2BD03B6A62
:1032000093F84C30042B26D801A252F823F000BFCB
:1032100025320008493200083732000837320008EA
:1032200049320008396A7A683B6A9B6B013B60202F
:10323000FEF774FF0EE0396A7A683B6A9B6B013BCC
:103240006120FEF76BFF05E03B6A7A681946622051
:10325000FEF70AFF00BFFB695A1E3B6A9A633B6A8E
:103260001B69002B0FD03B6A10331846FEF76AF833
:103270000346002B07D0944B4FF080521A60BFF3E7
:103280004F8FBFF36F8F00F0AFFB012336E17B68F8
:10329000002B46D100F0A8FB00F018FD03461846AD
:1032A00000F03EFC03461A46864B1B8813409BB237
:1032B000002B34D0386A00F057FC03461A46814B85
:1032C0001B8813409BB2002B29D03B6A93F84C30EB
:1032D000042B24D801A252F823F000BFF1320008D9
:1032E00011330008013300080133000811330008CE
:1032F000396A7A683B6A9B6B6320FEF70FFF0DE02B
:10330000396A7A683B6A9B6B6420FEF707FF05E029
:103310003B6A7A6819466520FEF7A6FE00BF0023C7
:10332000ECE07B6A002B06D107F114031846FEF788
:1033300071F801237B6200F057FBFDF7AFFD00F051
:103340003BFB3B6A93F844305BB2B3F1FF3F03D1E0
:103350003B6A002283F844203B6A93F845305BB215
:10336000B3F1FF3F03D13B6A002283F8452000F010
:103370003BFB3A1D07F1140311461846FEF760F8AF
:103380000346002B66D1386A00F0B8F90346002BDB
:103390005AD000F09BFC0346184600F0C1FB0346E0
:1033A0001A46484B1B8813409BB2002B33D0386A17
:1033B00000F0DAFB03461A46424B1B8813409BB2CF
:1033C000002B28D03B6A93F84C30042B23D801A261
:1033D00052F823F0E933000809340008F9330008F3
:1033E000F933000809340008396A7A683B6A9B6B34
:1033F0006620FEF793FE0DE0396A7A683B6A9B6BA4
:103400006720FEF78BFE05E03B6A7A681946682064
:10341000FEF72AFE00BF3B6A24337A68114618463D
:10342000FDF742FF386A00F017F9FDF745FD034646
:10343000002B7FF4BFAE244B4FF080521A60BFF3D5
:103440004F8FBFF36F8FB5E6386A00F005F9FDF7CF
:1034500033FDAFE6386A00F0FFF8FDF72DFD386A5E
:1034600000F04CF90346002B3FF4A4AE00F02EFC14
:103470000346184600F054FB03461A46114B1B88BE
:1034800013409BB2002B38D0386A00F06DFB034626
:103490001A460C4B1B8813409BB2002B2DD03B6A65
:1034A00093F84C30042B28D801A252F823F000BF27
:1034B000CD340008ED340008DD340008DD340008A8
:1034C000ED3400082400002004ED00E0396A7A6839
:1034D0003B6A9B6B6320FEF721FE0DE0396A7A6838
:1034E0003B6A9B6B6420FEF719FE05E03B6A7A6835
:1034F00019466520FEF7B8FD00BF0023184628379F
:10350000BD4680BD80B483B000AF78607B689B6CA3
:1035100018460C37BD4680BC704700BF80B483B0EE
:1035200000AF786039607B683A689A6400BF0C37F6
:10353000BD4680BC704700BF80B586B000AFF86064
:10354000B9607A6000237B61FB689B6B3B61FB6821
:103550001B6C002B0DD1FB681B68002B4DD1FB6849
:103560009B681846FEF7C6F87861FB6800229A60EF
:1035700043E07B68002B19D1FB685868FB681B6C23
:103580001A46B96801F000F8FB685A68FB681B6CC2
:103590001A44FB685A60FB685A68FB689B689A4249
:1035A0002BD3FB681A68FB685A6026E0FB68D86872
:1035B000FB681B6C1A46B96800F0E6FFFB68DA6826
:1035C000FB681B6C5B421A44FB68DA60FB68DA68D4
:1035D000FB681B689A4207D2FB689A68FB681B6C01
:1035E0005B421A44FB68DA607B68022B05D13B69B9
:1035F000002B02D03B69013B3B613B695A1CFB68D5
:103600009A637B6918461837BD4680BD80B582B085
:1036100000AF786039607B681B6C002B18D07B682A
:10362000DA687B681B6C1A447B68DA607B68DA684E
:103630007B689B689A4203D37B681A687B68DA6070
:103640007B68D9687B681B6C1A46386800F09CFF61
:1036500000BF0837BD4680BD80B584B000AF78603C
:1036600000F0AAF97B6893F84530FB7311E07B68A2
:103670005B6A002B12D07B6824331846FDF762FE8C
:103680000346002B01D0FDF721FFFB7B013BDBB2A2
:10369000FB7397F90F30002BE9DC00E000BF7B687B
:1036A000FF2283F8452000F09FF900F085F97B6840
:1036B00093F84430BB7311E07B681B69002B12D078
:1036C0007B6810331846FDF73DFE0346002B01D002
:1036D000FDF7FCFEBB7B013BDBB2BB7397F90E3001
:1036E000002BE9DC00E000BF7B68FF2283F8442068
:1036F00000F07AF900BF1037BD4680BD80B584B0B8
:1037000000AF786000F058F97B689B6B002B02D10A
:103710000123FB6001E00023FB6000F065F9FB681A
:1037200018461037BD4680BD80B584B000AF7860C4
:1037300000F042F97B689A6B7B68DB6B9A4202D19E
:103740000123FB6001E00023FB6000F04DF9FB6802
:1037500018461037BD4680BD80B584B000AF786094
:1037600039600023FB601EE0124AFB6852F83330D8
:10377000002B15D10F49FB683A6841F833200D4AF8
:10378000FB68DB0013447A685A6039687868FEF792
:1037900091FF7B683A6803210120FEF793FD05E065
:1037A000FB680133FB60FB68092BDDD900BF1037D4
:1037B000BD4680BDCC30002080B586B000AFF8603B
:1037C000B9607A60FB687B6100F0F6F87B6993F87A
:1037D00044305BB2B3F1FF3F03D17B69002283F831
:1037E00044207B6993F845305BB2B3F1FF3F03D1CE
:1037F0007B69002283F8452000F0F6F87B699B6B1B
:10380000002B06D17B6924337A68B9681846FDF726
:1038100061FD7869FFF720FF00BF1837BD4680BD06
:1038200080B485B000AFF860B9607A60FB68043B93
:10383000FB60FB684FF080721A60FB68043BFB6022
:10384000BB6823F00102FB681A60FB68043BFB6065
:10385000084AFB681A60FB68143BFB607A68FB68E7
:103860001A60FB68203BFB60FB6818461437BD46B6
:1038700080BC70477938000880B483B000AF002363
:103880003B604FF0220383F31188BFF36F8FBFF3C8
:103890004F8F7B6000BF3B68002BFCD000BF0C3714
:1038A000BD4680BC704700BF000000000000000063
:1038B000074B19680868B0E8F00F80F30988BFF378
:1038C0006F8F4FF0000080F311884EF00D0E70479F
:1038D0008400002000BF00BF06480068006880F335
:1038E000088862B661B6BFF34F8FBFF36F8F00DFFA
:1038F00000BF00BF08ED00E080B584B000AF294BE9
:10390000FB60FB681B78DBB2BB60FB68FF221A70B0
:10391000FB681B78DBB2FB71FB79DBB203F022039F
:10392000DAB2214B1A70214B07221A6009E01F4BB3
:103930001B68013B1D4A1360FB79DBB25B00DBB205
:10394000FB71FB79DBB25BB2002BF0DB174B1B6822
:103950001B02164A1360154B1B6803F4E063134AFD
:103960001360BB68DAB2FB681A70114A104B1B680F
:1039700043F47F0313600E4A0D4B1B6843F07F43F3
:10398000136000F091F80B4B00221A60FFF7A4FFC0
:10399000FDF716FCFFF770FF002318461037BD46F1
:1039A00080BD00BF00E400E03008002034080020A3
:1039B00020ED00E03000002080B483B000AF4FF075
:1039C000220383F31188BFF36F8FBFF34F8F7B60A8
:1039D000044B1B680133034A136000BF0C37BD461C
:1039E00080BC70473000002080B483B000AF094B2A
:1039F0001B68013B074A1360064B1B68002B04D170
:103A000000237B607B6883F3118800BF0C37BD46C1
:103A100080BC704730000020000000000000000063
:103A2000EFF30980BFF36F8F0D4B1A6820E9F00F99
:103A300010602DE908404FF0220080F31188FDF757
:103A4000BFFB4FF0000080F31188BDE80840196803
:103A50000868B0E8F00F80F30988BFF36F8F7047F4
:103A60008400002000BF00BF80B582B000AF4FF0DF
:103A7000220383F31188BFF36F8FBFF34F8F3B6037
:103A8000FDF7C8FA0346002B03D0064B4FF08052D7
:103A90001A6000237B607B6883F3118800BF0837BE
:103AA000BD4680BD04ED00E080B400AF084B0022AD
:103AB0001A60084B00221A60074B47F6FF421A6053
:103AC000034B07221A6000BFBD4680BC704700BF91
:103AD00010E000E018E000E014E000E080B483B003
:103AE00000AFEFF305837B607B680F2B04D9054A99
:103AF0007B6813441B78FB7000BF0C37BD4680BC4D
:103B0000704700BFF0E300E080B582B000AF78609E
:103B10007868FFF7F7FC034618460837BD4680BDB6
:103B200080B582B000AF78607868FDF7DBFC0346B3
:103B30001B0C9BB218460837BD4680BD80B582B0CD
:103B400000AF78600B467B807868FDF7CBFC0346BE
:103B50009AB27B881B04134319467868FDF7D8FC9A
:103B600000BF0837BD4680BD80B582B000AF786029
:103B70007868FFF7C9FF03461B0C9BB2184608374D
:103B8000BD4680BD80B582B000AF78600B467B80BB
:103B90007868FFF7B9FF03469AB27B881B0413438A
:103BA00019467868FFF7BAFC00BF0837BD4680BDEC
:103BB00080B588B002AF786000233B613A4B1B6848
:103BC000002B28D10023009341F28833374A38492B
:103BD000012000F005FC002300932023354A3649DC
:103BE000012000F067FC3548FDF744FF0246344BE6
:103BF0001A602D4B01930123009300234FF4807230
:103C00002D493048FCF722FF274B1B68002B02D1BF
:103C10000520FEF79DFE7B68022B30D100233B611F
:103C200007F1100207F108030821184600F0FAF81E
:103C300078617B69002B02D06920FEF775FE7B69F5
:103C4000002B17D13B69082B14D107F10803184644
:103C5000FEF716FE0346002B0CD03B7A012B04D155
:103C60007B7A012B01D1FEF795FE07F10803184678
:103C7000FEF746FE144B1B68002BCFD010E07B688C
:103C8000012B0BD1FEF786FE01233B7201237B72D1
:103C900007F108031846FEF733FE01E0FEF77AFE4F
:103CA00000BF1837BD4680BD3C0800201C310020F5
:103CB000FC49000850080020044A00080C4A00088B
:103CC000A4440020B93D0008FC07002080B500AFE7
:103CD000FDF7E4FC0346184680BD00BF80B483B006
:103CE00000AF7860074B1A687B689A4204D0054A97
:103CF0007B681360012300E0002318460C37BD46A3
:103D000080BC70473808002080B500AF224B1A688D
:103D1000224B1B689A420AD91F4B1B68002B02D00A
:103D20006520FEF701FE1C4B1B681C4A13601C4BF0
:103D30001A681C4B1B689A420AD9194B1B68002B46
:103D400002D06720FEF7F0FD154B1B68154A136083
:103D5000154B1A68154B1B689A420AD9124B1B68FF
:103D6000192B02D96620FEF7DFFD0F4B1B680F4AA7
:103D700013600F4B1A680F4B1B689A420AD90C4B01
:103D80001B68002B02D06820FEF7CEFD084B1B6895
:103D9000084A136000BF80BD1808002040080020BA
:103DA0001C080020440800202008002048080020AB
:103DB000240800204C08002080B586B000AF786051
:103DC0000023BB6000237B610023BB6007F1080276
:103DD00007F10C030821184600F024F878617B698C
:103DE000002B02D06920FEF79FFD7B69002B0FD1CD
:103DF000BB68082B0CD107F10C031846FEF740FDF9
:103E00000346002B04D007F10C031846FEF778FD9B
:103E1000BB68002BD8D1FFF777FF0220FCF7A0FF8B
:103E2000D2E700BF80B586B000AFF860B9607A60B5
:103E300000237B610F4BD3F884200E4BD3F88830DE
:103E40009A4212D0BA68F968012000F03BFA786112
:103E50007B68002B02D07A697B681A607A69BB683C
:103E60009A4202D04FF0FF3300E000231846183783
:103E7000BD4680BDA844002080B586B000AFF86084
:103E8000B9607A60BA68F968012000F085FA786153
:103E90007B68002B02D07A697B681A607A69BB68FC
:103EA0009A4202D04FF0FF3300E000231846183743
:103EB000BD4680BD80B584B000AF78600023FB6054
:103EC0007B6803F00703002B04D07B6823F0070313
:103ED00008337B60FCF7E2FF294B1B68002B05D100
:103EE000284B23F007031A46254B1A60264B1A6805
:103EF0007B68134442F2F772934213D8224B1A683C
:103F00007B681A44204B1B689A420BD91C4B1A68D9
:103F10001D4B1B681344FB601B4B1A687B681344E2
:103F2000194A1360FB68002B05D0184B1A687B6890
:103F30001344164A1360FFF7C9FE03461846FFF7FD
:103F4000EFFD03461A46124B1B8813409BB2002B11
:103F50000FD0FB68002B06D0FB687A681946382022
:103F6000FEF782F805E0FB687A681946E920FEF75B
:103F70007BF8FCF7A1FFFB6818461037BD4680BDF3
:103F80007430002078080020703000208801002064
:103F90002400002080B483B000AF786000BF0C37ED
:103FA000BD4680BC704700BF80B483B000AF204BDB
:103FB0007B607B6803221A617B6803225A617B68FD
:103FC0001C4A9A617B681C4ADA617B6840221A624B
:103FD0007B6800229A627B6800225A627B6800221A
:103FE000DA627B68134A1A667B68144A5A667B68F1
:103FF00010229A667B6800221A677B680022DA66C4
:104000007B6800225A677B6807330D4A1068186086
:104010007B680C4A106818609188927999809A712F
:104020007B6820229A7100BF0C37BD4680BC704768
:10403000A8440020244A000878300020B83000202E
:10404000304A0008344A000880B588B000AFF860F4
:10405000B9607A600023BB61FB68DB687B61FB6849
:104060001B693B613A697B699A4205D93A697B6968
:10407000D31A013BFB6107E0FB689A6839697B69E9
:10408000CB1A1344013BFB61FB689A687B69D31A26
:10409000FA69934228BF1346FB61FA697B68934231
:1040A00028BF1346FB61FB685A687B691344FA69B1
:1040B000B968184600F068FABA69FB691344BB6135
:1040C000BA68FB691344BB607A68FB69D31A7B60EA
:1040D0007A69FB6913447B61FB689A687B699A4241
:1040E00001D100237B61FB687A69DA607B68002B71
:1040F000B5D1BB6918462037BD4680BD80B588B0B4
:1041000000AFF860B9607A60FB68DB68FB61FB6850
:104110009A68FB69D31ABB61BA697B689A420ED967
:10412000FB685A68FB6913447A68B968184600F05E
:104130002BFAFA697B681A44FB68DA601AE0BB69FB
:104140007B61FB685A68FB6913447A69B968184651
:1041500000F01AFA7A68BB69D31A7B61FB68586869
:10416000BA68BB6913447A69194600F00DFAFB6816
:104170007A69DA6000BF2037BD4680BD80B487B061
:1041800000AF78607B681B693B617B68DB68FB6024
:104190003A69FB689A4208D87B689A68FB68D21A29
:1041A0003B691344013B7B6104E03A69FB68D31A25
:1041B000013B7B617B6918461C37BD4680BC70475C
:1041C00080B58AB000AFF860B9607A603C4B1B786C
:1041D000002B01D1FFF7E8FEFA6813465B00134499
:1041E000DB006033364A1344BB61BB68FB61BB69CB
:1041F0001B693B62BB69DB687B6100237B623A6AB7
:104200007B699A422AD9BB699A683B6AD31A3B6197
:104210003A697B68934228BF13463B61BB695A6881
:104220003B6A13443A691946F86900F0ADF97A6AB5
:104230003B6913447B62FA693B691344FB617A680A
:104240003B69D31A7B603A6A3B6913443B62BB69A2
:104250009A683B6A9A4201D100233B627A693B6AC1
:10426000D31A3B613A697B68934228BF13463B618E
:104270003B69002B18D0BB695A683B6A13443A6902
:104280001946F86900F080F97A6A3B6913447B6249
:10429000FA693B691344FB617A683B69D31A7B6016
:1042A0003A6A3B6913443B627B6A002B02D0BB69CC
:1042B0003A6A1A617B6A18462837BD4680BD00BF3E
:1042C000A844002080B586B000AFF860B9607A607D
:1042D000EFF311834FF0200181F311887B617A683D
:1042E000B968F868FFF76CFF38617B6983F3118860
:1042F0003B6918461837BD4680BD00BF80B588B001
:1043000000AFF860B9607A60BB68BB61FB685A1C9B
:1043100013465B001344DB001E4A13447B617B6938
:104320005B69012B17D0012B02D3022B23D029E08C
:104330007869FFF723FF38613A697B689A4202D2B5
:104340000023FB6121E07B68FB617A68B9697869C9
:10435000FFF7D4FE19E07869FFF710FF38617A683B
:104360003B69934228BF1346FB61FA69B9697869D2
:10437000FFF7C4FE09E07A68B9697869FFF764FE5F
:10438000F86102E00023FB6100BFFB69184620379B
:10439000BD4680BDA844002080B586B000AFF8605F
:1043A000B9607A600D4B1B78002B01D1FFF7FCFD43
:1043B000EFF311834FF0200181F311887B617A685C
:1043C000B968F868FFF79AFF38617B6983F3118851
:1043D0003B6918461837BD4680BD00BFA844002081
:1043E00080B586B000AFF860B9607A603B60304B52
:1043F0001B78002B01D1FFF7D7FD2D4B1B691A4607
:10440000FB689A424CD9EFF311834FF0200181F3FE
:1044100011883B61FB68002B32D02549FB685A1C90
:1044200013465B001344DB000B44BA681A60204952
:10443000FB685A1C13465B001344DB000B44043337
:104440007A681A601A49FA6813465B001344DB0065
:104450000B4420333A681A601549FA6813465B002A
:104460001344DB000B44283300221A601049FA6819
:1044700013465B001344DB000B44243300221A6014
:104480000B49FA6813465B001344DB000B442C33E2
:104490003A6A1A603B6983F3118800237B6102E06A
:1044A0004FF0FF337B617B6918461837BD4680BDEE
:1044B000A844002080B586B000AFF860B9607A608B
:1044C0003B60304B1B78002B01D1FFF76DFD2D4B6E
:1044D0005B691A46FB689A424BD9EFF311834FF0A0
:1044E000200181F311883B61FB68002B31D0254905
:1044F000FA6813465B001344DB000B446033BA6870
:104500001A602049FA6813465B001344DB000B4431
:1045100064337A681A601B49FA6813465B001344D7
:10452000DB000B4468333A681A601649FA68134690
:104530005B001344DB000B44703300221A60114906
:10454000FA6813465B001344DB000B446C33002213
:104550001A600C49FA6813465B001344DB000B44F5
:1045600074333A6A1A603B6983F3118800237B61D4
:1045700002E04FF0FF337B617B6918461837BD4678
:1045800080BD00BFA8440020844641EA000313F028
:10459000030349D1403A23D30B6803604B6843605F
:1045A0008B688360CB68C3600B6903614B694361AF
:1045B0008B698361CB69C3610B6A03624B6A436297
:1045C0008B6A8362CB6AC3620B6B03634B6B43637F
:1045D0008B6B8363CB6BC36340304031403ADBD29B
:1045E00030320BD30B6803604B6843608B68836089
:1045F000CB68C36010301031103AF3D20C3205D3BF
:1046000051F8043B40F8043B043AF9D2043208D094
:10461000D2071CBF11F8013B00F8013B01D30B8806
:1046200003806046704700BF082A13D38B07B1D0C0
:1046300010F00303AED0C3F10403D21ADB071CBF92
:1046400011F8013B00F8013BA4D331F8023B20F8FC
:10465000023B9FE7043AD9D3013A11F8013B00F835
:10466000013BF9D20B7803704B7843708B788370E1
:104670006046704770B4840746D0541E002A41D06B
:10468000CDB2034602E0621EE4B3144603F8015BB8
:104690009A07F8D1032C2ED9CDB245EA05250F2C67
:1046A00045EA054519D9264603F11002103E0F2EA2
:1046B00042F8105C42F80C5C42F8085C42F8045C7A
:1046C00002F11002F2D8A4F1100222F00F0204F05D
:1046D0000F041032032C13440DD91E462246043A0F
:1046E000032A46F8045BFAD8221F22F003020432A0
:1046F000134404F003042CB1C9B21C4403F8011B99
:10470000A342FBD170BC704714460346C2E700BF0A
:104710005461736B20312069732072756E6E696EFF
:10472000670A00005461736B203220697320727530
:104730006E6E696E670A00005461736B20332069E6
:10474000732072756E6E696E670A00005461736B38
:1047500020342069732072756E6E696E670A0000DE
:104760005461736B20352069732072756E6E696EAB
:10477000670A00005461736B203100005461736B51
:10478000203200005461736B20330000546D72209E
:1047900053766300546D72510000000049444C454B
:1047A00000000000446562756720436F6E736F6C94
:1047B0006500000045786365656465642053594D64
:1047C000424F4C5F5441424C455F534C4F54532031
:1047D00028736565207854726163654765744C6120
:1047E00073744572726F722900000000457863652A
:1047F000656465642053594D424F4C5F4D41585F8D
:104800004C454E47544820287365652078547261A2
:1048100063654765744C6173744572726F722900E9
:104820004578636565646564204F424A4543545F3B
:10483000444154415F534C4F5453202873656520C5
:104840007854726163654765744C61737445727224
:104850006F722900537472696E6720746F6F206CD9
:104860006F6E6720287365652078547261636547B1
:1048700065744C6173744572726F72290000000098
:104880005452435F53545245414D5F504F52545F11
:10489000524541445F444154412072657475726EC3
:1048A0006564206572726F722028213D2030292EA8
:1048B000000000005452435F53545245414D5F5035
:1048C0004F52545F57524954455F444154412072FE
:1048D000657475726E6564206572726F722028212E
:1048E0003D2030292E000000496E76616C696420FD
:1048F0006576656E7420636F646520287365652036
:104900007854726163654765744C61737445727263
:104910006F72290045786365656465642049535268
:10492000206E657374696E672028736565207854FE
:10493000726163654765744C6173744572726F721E
:1049400029000000445754206E6F742073757070F6
:104950006F72746564202873656520785472616392
:10496000654765744C6173744572726F72290000FB
:104970004457545F435943434E54206E6F74207321
:104980007570706F72746564202873656520785443
:10499000726163654765744C6173744572726F72BE
:1049A00029000000436F756C64206E6F7420637281
:1049B0006561746520547A4374726C202873656550
:1049C000207854726163654765744C6173744572F5
:1049D000726F7229000000005265636F7264657225
:1049E0002073746F7070656420696E2070727654E5
:1049F000726163654572726F72282900547A44614E
:104A000074610000547A4374726C00005761726ED6
:104A1000696E67732066726F6D205265636F726492
:104A2000657200005465726D696E616C0000000073
:0B4A30005254540053454747455200C4
:104A3B0064000000090000000A0000000B000000E9
:104A4B00FF000000004653500500000088130000D3
:104A5B0088130000FFFF0100FF000000FFFFFFFFB6
:044A6B00AAAAAAAA9F
:0400000508000000EF
:00000001FF
